:020000040000FA
:06000000B8EF00F0120051
:02002A000000D4
:04002C002A0EF66E34
:10003000000EF76E000EF86E00010900F550656FB6
:100040000900F550666F03E1656701D03DD00900F6
:10005000F550606F0900F550616F0900F550626F4F
:1000600009000900F550E96E0900F550EA6E090033
:1000700009000900F550636F0900F550646F09002D
:100080000900F6CF67F0F7CF68F0F8CF69F060C0ED
:10009000F6FF61C0F7FF62C0F8FF0001635302E1A1
:1000A000645307E00900F550EE6E6307F8E2640759
:1000B000F9D767C0F6FF68C0F7FF69C0F8FF000115
:0A00C0006507000E665BBFD7120053
:0600CA00956AC00E9316BA
:1000D000836A816A060E836E010E816E0A0EE66ED9
:1000E000A8EC00F0E552816A5B0E836E020E816E11
:1000F0000A0EE66EA8EC00F0E552816A4F0E836EA0
:10010000040E816E0A0EE66EA8EC00F0E552816ADC
:10011000660E836E080E816E0A0EE66EA8EC00F085
:10012000E552816A6D0E836E100E816E0A0EE66EC8
:10013000A8EC00F0E552816A7D0E836E200E816E80
:100140000A0EE66EA8EC00F0E552816AC3D71200F1
:10015000FF0EE350026E480E01D04C0EE76EE72E04
:10016000FED7E76AE72EFED7022EF7D7000012006F
:1001700013EE00F023EE00F0F86A019C16EC00F09C
:0C018000C6EC00F065EC00F0FBD71200AC
:02018C0012005F
:020000040030CA
:010001000CF2
:010003001EDE
:010005008179
:010006008178
:00000001FF
