:020000040000FA
:0600000010EF01F01200F8
:02002A000000D4
:04002C00D9CFE6FF43
:10003000E1CFD9FF0F0EE126DF6ADE52800EDD6EC2
:10004000C00EF36E020EF3CFDBFFE00EF36E030E75
:10005000F3CFDBFFF00EF36E040EF3CFDBFFF80EF1
:10006000F36E050EF3CFDBFFFC0EF36E060EF3CF3F
:10007000DBFFFE0EF36E070EF3CFDBFF080EDB682F
:100080000B0EDB6A0C0EDB6A0D0EDB6A0E0EDB6AF2
:10009000956A030E936E81A02AD0090EDBCF02F081
:1000A0000A0EDBCF03F0033404E202500808000E0E
:1000B00003541CE38150010B19E0D9CF02F0DACFD1
:1000C00003F0090EDB500224E96E0A0EDB50032018
:1000D000EA6EEF50836E190EE66EF9EC00F0E55211
:1000E000090EDB2A0A0E01E3DB2AD7D728D081A22A
:1000F00026D0090EDBCF02F00A0EDBCF03F00001A1
:10010000800E03141CE18150020B19E0D9CF02F0DC
:10011000DACF03F0090EDB500224E96E0A0EDB5041
:100120000320EA6EEF50836E190EE66EF9EC00F0D4
:10013000E552090EDB060A0E01E2DB06DAD7ABD781
:100140000F0EE15C02E2E16AE552E16EE552E7CFB3
:04015000D9FF1200C1
:0C0154002A0EF66E000EF76E000EF86E1C
:1001600000010900F550656F0900F550666F03E165
:10017000656701D03DD00900F550606F0900F5506A
:10018000616F0900F550626F09000900F550E96ED2
:100190000900F550EA6E090009000900F550636F87
:1001A0000900F550646F09000900F6CF67F0F7CF3A
:1001B00068F0F8CF69F060C0F6FF61C0F7FF62C079
:1001C000F8FF0001635302E1645307E00900F550B2
:1001D000EE6E6307F8E26407F9D767C0F6FF68C000
:1001E000F7FF69C0F8FF00016507000E665BBFD727
:0201F0001200FB
:0E01F200FF0EE350056EEF0E01D0F30EE76E28
:10020000E72E00EF01F00C0E046EE76AE72E06EF12
:1002100001F0042E05EF01F0052EFEEF00F01200B4
:1002200013EE00F023EE00F0F86A019CAAEC00F057
:0C0230001EEC01F016EC00F0FBD71200F1
:02023C001200AE
:020000040030CA
:0100010008F6
:0100020019E4
:010003001EDE
:010005008179
:010006008178
:00000001FF
