:020000040000FA
:06000000C9EF01F012003F
:06002A000100B00300001C
:08003000600000001000000058
:08003800D9CFE6FFE1CFD9FFAB
:10004000E6523ED846D8DF6EDF5033E02A0EDF5C42
:100050000BE100016E6B0A0E6C6FC80EE66EE66A6D
:10006000F7D8E552E55225D0230EDF5C0CE1000104
:10007000010E6E6F0B0E6D6FC80EE66EE66AE8D865
:10008000E552E55216D0300EDF5C13E3DF5039083D
:1000900010E300016E5104E1300EDF5C6C6F03D0A1
:1000A000300EDF5C6D6FC80EE66EE66AD1D8E552A1
:1000B000E552B2D8C7D7E552E552E7CFD9FF1200D3
:1000C0000F0E936E956A949094928A6A8C6A8B6AEA
:1000D0001200D9CFE6FFE1CFD9FF020EE126DF6A99
:1000E000010EDB6A030EF36E010EDBCFF4FFF3505B
:1000F000F45C6FE28F0E8A16010EDB50020A09E0F3
:10010000030A05E0010A01E006D08A8804D08A8A41
:1001100002D08A8C00D0010EE66EA2EC01F0E5520E
:1001200081A013D0010EDB50020A0BE0030A06E0A7
:10013000010A01E009D0310EDF6E06D0320EDF6E0B
:1001400003D0330EDF6E00D03ED081A213D0010E5B
:10015000DB50020A0BE0030A06E0010A01E009D0C5
:10016000340EDF6E06D0350EDF6E03D0360EDF6E36
:1001700000D029D081A413D0010EDB50020A0BE07D
:10018000030A06E0010A01E009D0370EDF6E06D04F
:10019000380EDF6E03D0390EDF6E00D014D081A68A
:1001A00012D0010EDB50020A0BE0030A06E0010A3E
:1001B00001E009D02A0EDF6E06D0300EDF6E03D0CC
:1001C000230EDF6E00D0DF5001E003D0010EDB2AEA
:1001D00089D7DF50006E020EE15C03E200D0E16AD5
:1001E000E552E16E0050E552E7CFD9FF1200D9CFBA
:1001F000E6FFE1CFD9FFFE0EDB500B0809E3FE0E50
:10020000DB50EA6A600FE96E000EEA22EF508C6E56
:10021000E552E7CFD9FF120000016F2B6F510A089A
:1002200001E26F6B050E6F5D07E28B928B806CC0F5
:10023000E6FFDDDFE55206D08B828B906DC0E6FFD6
:10024000D6DFE552010EE66EA2EC01F0E552120097
:10025000D9CFE6FFE1CFD9FF020EE126DE6ADD6AE3
:10026000DECF00F0DDCF01F0FD0EDBCF02F0FE0EA1
:10027000DBCF03F00250005C035001580AE2040E89
:10028000E66EB9EC01F0E552DF2A010E01E3DB2A4C
:10029000E7D7020EE15C02E2E16AE552E16EE55267
:0602A000E7CFD9FF1200B8
:0A02A6002A0EF66E000EF76E000E31
:1002B000F86E00010900F550756F0900F550766F72
:1002C00003E1756701D03DD00900F550706F09005A
:1002D000F550716F0900F550726F09000900F55073
:1002E000E96E0900F550EA6E090009000900F550B1
:1002F000736F0900F550746F09000900F6CF77F0AD
:10030000F7CF78F0F8CF79F070C0F6FF71C0F7FF43
:1003100072C0F8FF0001735302E1745307E0090053
:10032000F550EE6E7307F8E27407F9D777C0F6FF61
:1003300078C0F7FF79C0F8FF00017507000E765B03
:04034000BFD7120011
:0C034400FF0EE350076EEF0E01D0F30E29
:10035000E76EE72EA9EF01F00C0E066EE76AE72EB6
:10036000AFEF01F0062EAEEF01F0072EA7EF01F080
:02037000120079
:0E037200FF0EE350076E480E01D04C0EE76EF2
:10038000E72EFED7E76AE72EFED7072EF7D7000045
:02039000120059
:0E03920013EE00F023EE00F0F86A059C53EC29
:0E03A00001F0D7EC01F01CEC00F0FBD71200CE
:0203AE0012003B
:1003B0003F065B4F666D7D077F6F40080A0B0000AC
:020000040030CA
:0100000024DB
:010001000EF0
:010002001FDE
:010003001EDE
:010005008179
:010006008178
:00000001FF
