:020000040000FA
:0600000012EF01F01200F6
:060008001CEF00F01200E5
:06002A000100420200008B
:08003000600000001000000058
:08003800DACFE4FFE2CFDAFFAA
:10004000E652F2A22AD0F2920001633504E2625134
:100050000908000E635521E3090E61AF02D0D89064
:1000600003D0605D000E615918E2602B000E612321
:10007000613504E260510908000E61550EE2606BC3
:10008000616B622B000E6323633504E26251090841
:10009000000E635502E2626B636BF0A018D0F09023
:1000A0000001800E631513E1613504E26051000820
:1000B000000E61550CE26007000E615B800E611559
:1000C00006E0090E606F616B6207000E635BE5522C
:1000D000E5CFDAFF11000F0EC16E030E936E956A25
:1000E0008C6A946A826A82848298F18CF292F28895
:1000F000F18AF090F086D09EF28E8282660E000128
:100100006025E96E000E6121EA6EEF50836EE66AAB
:1001100002EC01F0E55282928280660E00016225B7
:10012000E96E000E6321EA6EEF50836EE66A02EC20
:1001300001F0E55282900001633504E26251090842
:10014000000E63550CE3090E61AF02D0D89003D0C6
:10015000605D000E615903E28284829802D082942D
:060160008288CBD71200DB
:0A0166002A0EF66E000EF76E000E72
:10017000F86E00010900F550756F0900F550766FB3
:1001800003E1756701D03DD00900F550706F09009B
:10019000F550716F0900F550726F09000900F550B4
:1001A000E96E0900F550EA6E090009000900F550F2
:1001B000736F0900F550746F09000900F6CF77F0EE
:1001C000F7CF78F0F8CF79F070C0F6FF71C0F7FF85
:1001D00072C0F8FF0001735302E1745307E0090095
:1001E000F550EE6E7307F8E27407F9D777C0F6FFA3
:1001F00078C0F7FF79C0F8FF00017507000E765B45
:04020000BFD7120052
:0C020400FF0EE350026E480E01D04C0EBD
:10021000E76EE72EFED7E76AE72EFED7022EF7D766
:0402200000001200C8
:0C02240013EE00F023EE00F0F86A019CDD
:10023000B3EC00F020EC01F06BEC00F0FBD7120007
:020240001200AA
:0E0242000500090000003F065B4F666D7D075A
:020250007F6FBE
:020000040030CA
:010001000CF2
:010003001EDE
:010006008178
:00000001FF
