:020000040000FA
:0600000065EF00F01200A4
:02002A000000D4
:04002C002A0EF66E34
:10003000000EF76E000EF86E00010900F550656FB6
:100040000900F550666F03E1656701D03DD00900F6
:10005000F550606F0900F550616F0900F550626F4F
:1000600009000900F550E96E0900F550EA6E090033
:1000700009000900F550636F0900F550646F09002D
:100080000900F6CF67F0F7CF68F0F8CF69F060C0ED
:10009000F6FF61C0F7FF62C0F8FF0001635302E1A1
:1000A000645307E00900F550EE6E6307F8E2640759
:1000B000F9D767C0F6FF68C0F7FF69C0F8FF000115
:0A00C0006507000E665BBFD7120053
:0600CA0013EE00F023EE2E
:1000D00000F0F86A019C16EC00F07DEC00F073EC87
:0600E00000F0FBD7120046
:0A00E6000F0EC16E836A816A956AED
:0A00F00093688150836EFDD7120063
:0200FA001200F2
:00000001FF
